S00F0000636F756E7465722E7372656315
S11300000C942A000C9434000C9434000C943400A6
S11300100C9434000C9434000C9434000C9434008C
S11300200C9434000C9434000C9434000C9434007C
S11300300C9434000C9434000C9434000C9434006C
S11300400C9434000C9434000C9434000C9434005C
S11300500C94340011241FBECFE5D8E0DEBFCDBF21
S11300600E9436000C9448000C9400008FE081BB81
S113007080E08F5F803109F480E082BB2FE33DE0B4
S113008093E0215030409040E1F700C00000F1CFF0
S1070090F894FFCF0E
S9030000FC
