:100000000C942A000C9434000C9434000C943400AA
:100010000C9434000C9434000C9434000C94340090
:100020000C9434000C9434000C9434000C94340080
:100030000C9434000C9434000C9434000C94340070
:100040000C9434000C9434000C9434000C94340060
:100050000C94340011241FBECFE5D8E0DEBFCDBF25
:100060000E9426010C942D010C940000FC0181E0FB
:10007000808382E0818384E0828388E0838380E1DF
:10008000848380E2858380E4868317820895FC015F
:100090009CE3908384E0818382839383848385833C
:1000A000968317820895CF93DF93CDB7DEB760971D
:1000B0000FB6F894DEBF0FBECDBF8C01CE010996FE
:1000C0000E944700CE0101960E94360040E050E0B9
:1000D00021C0E1E0F0E0EC0FFD1FE40FF51F80818F
:1000E00088BBE9E0F0E0EC0FFD1FE40FF51F808115
:1000F000809582BB2F5F3F4F02C020E030E022336B
:1001000031053CF38DEE92E00197F1F700C000005D
:100110004F5F5F4F4730510584F301301105C9F43B
:1001200013C0E9E0F0E0EC0FFD1FE40FF51F2081A4
:10013000822F90E0880F991F221F2227221F822BD7
:1001400080834F5F5F4F02C040E050E04730510571
:1001500044F302301105B9F411C0E9E0F0E0EC0F0E
:10016000FD1FE20FF31F808190E8899FA0011124F9
:100170008695842B80832F5F3F4F02C020E030E0C4
:100180002730310554F303301105B9F411C0E1E013
:10019000F0E0EC0FFD1FE20FF31F808190E8899FD4
:1001A000A00111248695842B80832F5F3F4F02C0CE
:1001B00020E030E02730310554F304301105C9F454
:1001C00013C0E1E0F0E0EC0FFD1FE40FF51F20810C
:1001D000822F90E0880F991F221F2227221F822B37
:1001E00080834F5F5F4F02C040E050E047305105D1
:1001F00044F30530110509F069CF22C0E1E0F0E0D9
:10020000EC0FFD1FE80FF91F4081242F30E0220F73
:10021000331F441F4427441F242B2083E9E0F0E0D0
:10022000EC0FFD1FE80FF91F4081242F30E0220F53
:10023000331F441F4427441F242B2083019602C0F0
:1002400080E090E087309105CCF240CF8FEF81BB0A
:0E02500087BB81E090E00E945300F894FFCF3E
:00000001FF
